:020000004A288C
:10000800803120007F08F3000B1D47284030950001
:10001800261C3A282108F2002008F100A00A03193A
:10002800A10A72082302031D1B2871082202031C5F
:100038001F280C1420280C102208BC3EF1000230A6
:10004800233DF20072082102031D2C2871082002AA
:10005800031C3A28A001A1010130F1007108A4078E
:1000680025082402031C3A2826100C1030210130E0
:10007800F10071082000B20764303202031C4628E0
:10008800B20176150B117308FF0009004B28F60121
:10009800F701F801F90120308400003085001430A0
:1000A800EA232000342B20002A083106031D08000B
:1000B800F8282E082D04031D6C280830AD000730E1
:1000C800AE00E830F4000330F5000130D9231329DD
:1000D8002000AD01AE01AB01AC01E830F400033003
:1000E800F5000230D923132920002E082D04031D02
:1000F80088281030AD000E30AE00E830F400033030
:10010800F5000130D92313292000AD01AE01AB0160
:10011800AC01E830F4000330F5000230D92313298C
:1001280038302000BD003D08C20076108222E83039
:10013800F4000330F5000130D92313292B302000B7
:10014800BD003D08C20076108222E830F40003307A
:10015800F5000130D923132923302000BD003D08C4
:10016800C20076108222E830F4000330F500013036
:10017800D92313291C302000BD003D08C200761089
:100188008222E830F4000330F5000130D923132926
:100198007618D728C2017614E830F4000330F50049
:1001A8000130D92313292000C2017610E830F40069
:1001B8000330F5000130D92313292000C208031D9C
:1001C800EE287610C623E830F4000330F50001303D
:1001D800D92313292000C2017610E830F400033037
:1001E800F5000130D923132920002808103A0319F3
:1001F8009428303A0319BE28103A03195D28703A3A
:100208000319CC28103A0319B028D03A0319E12869
:10021800103A0319A228403A031978282F29761C86
:10022800182920008C141A2920008C104208BD00BF
:10023800BE013D08B4003E08B5000530B6000030E8
:10024800B700912320003508B901B9073408B8016F
:10025800B8070430B4210800761A080020000C1DE5
:100268003B290130F0007008F707F6150800013047
:10027800F0007008F807F61D0800F6185E291C3013
:100288007802031CAF29293078020318AF290E30F1
:100298007702031CAF29153077020318AF29F6142B
:1002A8000030AA000030A9000030A8000030A700E4
:1002B800F901B029F61CB02903307802031CAF29D4
:1002C800073078020318AF290A307702031C79290E
:1002D80010307702031879290130A735A80DA90D28
:1002E800AA0D890B71292714902903307702031C62
:1002F800952907307702031895290130A735A80DED
:10030800A90DAA0D890B8229FE30A705FF30A80583
:10031800FF30A905FF30AA050130F0007008F90781
:100328009629F6107908103A031DAA2900302A06E2
:10033800031DA82900302906031DA829AE30280668
:10034800031DA82948302706031DAF297908303A2C
:10035800031DB0297616F610F611F701F80108000A
:100368002000BC0001303902153003193802031C83
:10037800C1291430B8000130B9003C08013A031D06
:10038800DC293908BB003808BA00BB36BA0CBB36C2
:10039800BA0C3A082C00920020003808BA00053040
:1003A800BA35FF3E031DD4293A352C0091000800C8
:1003B80020003C08023A031DF8293908BB00380818
:1003C800BA00BB36BA0CBB36BA0C3A082C009500FA
:1003D80020003808BA000530BA35FF3E031DF02961
:1003E8003A352C009400080020003C08033A031D0D
:1003F800142A3908BB003808BA00BB36BA0CBB3619
:10040800BA0C3A082C00980020003808BA000530C9
:10041800BA35FF3E031D0C2A3A352C009700080018
:1004280020003C08043A031D08003908BB003808BE
:10043800BA00BB36BA0CBB36BA0C3A082C009B0083
:1004480020003808BA000530BA35FF3E031D282AB7
:100458003A352C009A0008002000B600B701F508CC
:10046800031908008B138030B8000330B900360830
:10047800B400B5013408B8073508B93D3808230079
:1004880091002000390823009200151315129516C3
:10049800151523009401200037087407B4003408A8
:1004A8008600870101082300930055309600AA3082
:1004B8009600951400000000000000000130F502CD
:1004C800F5080319732A01302000B400340823000A
:1004D800910701302000B4003408B7074D2A2300E3
:1004E800951255309600AA30960095140000000029
:1004F80000000000230015118B17080070305423EA
:100508002000BA003A08BB00410842060319080057
:100518000F303B02031C932ABB01BB0A972A013008
:10052800BA003A08BB070730E4223B302000BA0083
:100538003A08F400F501F50A70303022200042082C
:10054800BA003A08C1003B08703EBA003A08BB003E
:100558004230BA003A08F400F501F50A3B083022A7
:100568000800761D0800761101302000BD003D0806
:10057800B30773232000BD003D08B1006430330287
:10058800031C0800B3012E082D04031908000130CC
:10059800AB070030AC3D2E082C02031DD52A2D08D0
:1005A8002B02031C0800AD01AE01AB01AC01C20176
:1005B8008C100030B8000030B9000430B4210800B5
:1005C8002000B4008B138030B5000330B600340827
:1005D800F400F501F40EF50EF030F50574080F3946
:1005E800F504F030F4057408B5077508B63D35080C
:1005F80023009100200036082300920015131515DA
:10060800151655309600AA30960095140000000083
:1006180000000000230015118B1708007A30210014
:1006280099000E30970023008C01143021008C00B3
:10063800043024008C00203020008C00210095120A
:10064800F830950595114030200095008B168B17D2
:1006580044309B0007309C00D0302C009C000800E0
:100668001223C62320008C104208BF00C0013F0897
:10067800B4004008B5000530B6000030B70091233B
:1006880020003508B901B9073408B801B8070430A3
:10069800B421B522AF23003A03194D2B57204D2B17
:1006A8002000B4008B138030B5000330B600340846
:1006B800F400F5017408B5077508B63D3508230040
:1006C800910020003608230092001513151400002D
:1006D8000000000000008B17230013080800F50134
:1006E80020000C1E822BB0010130F4007408AF0703
:1006F8000C302F02031C8F2B80308C2BAF01013064
:10070800F4007408B0070C303002031C8F2BF03053
:10071800F4007408F50075080800F401F5012000DC
:10072800341C9A2B3608F4073708F53D0130B635E6
:10073800B70D890B9B2B0130B536B40C890BA02B58
:1007480035083404031D932B7508B501B5077408E3
:10075800B401B4070800761EC42B20002908F53A16
:10076800031DC32B27082807F400F501F50DFF30FA
:1007780074067504031DC32B761201300800761227
:1007880000300800703054232000B7003708B80044
:100798003808703EB7003708B800380854232000DE
:1007A800C200B7003708C10008002000B500A0014A
:1007B800A1017508A301A3077408A201A207A40157
:1007C8003508B4003408A500261408006400800128
:0807D8000131890BEB2B003409
:020000040001F9
:04000E00C4F9FEDD56
:00000001FF
