:020000004A288C
:10000800803120007F08F5000B1D472840309500FF
:10001800261C3A282108F4002008F300A00A031936
:10002800A10A74082302031D1B2873082202031C5B
:100038001F288E1420288E102208BC3EF3000230A0
:10004800233DF40074082102031D2C2873082002A4
:10005800031C3A28A001A1010130F3007308A4078A
:1000680025082402031C3A2826108E10E4210130AA
:10007800F30073082000B60764303602031C4628D4
:10008800B601F0160B117508FF0009004B28F001A6
:10009800F101F80120308400003085001B303E2536
:1000A8004425F9002000192D20002A083506031DD3
:1000B8000800F0180800FA2830082F04031D6F28DC
:1000C8000830AF000730B000E830F6000330F70022
:1000D80001302D2515292000AF01B001AD01AE0179
:1000E800E830F6000330F70002302D2515292000EE
:1000F80030082F04031D8B281030AF000E30B000DD
:10010800E830F6000330F70001302D2515292000CE
:10011800AF01B001AD01AE01E830F6000330F700E1
:1001280002302D25152938302000C4004408F80075
:1001380070108A23E830F6000330F70001302D25CF
:1001480015292B302000C4004408F80070108A23B9
:10015800E830F6000330F70001302D25152923304B
:100168002000C4004408F80070108A23E830F60024
:100178000330F70001302D25152978082000C40028
:100188004408B300F014E830F6000330F7000130FB
:100198002D2515297018D928F8017014E830F600B3
:1001A8000330F70001302D251529F8017010E830CB
:1001B800F6000330F70001302D251529F808031D36
:1001C800F1282000AF01B0017010D823E830F60004
:1001D8000330F70001302D251529F8017010E8309B
:1001E800F6000330F70001302D25152920002808D6
:1001F800103A03199728203A03196028703A03190E
:10020800CE28103A0319B328203A0319C128F03A26
:100218000319E228103A0319A528403A03197B2844
:100228003129701C1A2920000E141C2920000E10D8
:100238007808C400C5014408BB004508BC00053067
:10024800BD000030BE00CB2420003C08C001C00720
:100258003B08BF01BF07023068220800F01E0800F3
:10026800F012AD242000C8004808B5000130C800CD
:100278004808B80764303802031C5F29B801300801
:100288002F0403195F290130AD070030AE3D300857
:100298002E02031D51292F082D02031C5F29AF01CF
:1002A800B001AD01AE01F8010E100030BF00003002
:1002B800C00002306822F01C08007118A129013022
:1002C800F90214302000BF000030C0003308C80015
:1002D800C9014808BB004908BC007908CA00CB011D
:1002E8004A08BD004B08BE00CB2420003C08C201D0
:1002F800C2073B08C101C107E42220003F08CC0027
:100308004C08F800F908031DCD29711403100E1EBE
:100318000314031C922920000E16942920000E12A3
:1003280003108E1E0314031C9C2920008E169E2980
:1003380020008E120430F006CD2901302000C800BC
:100348004808F9071430BF000030C0003308C8005F
:10035800C9014808BB004908BC007908CA00CB019C
:100368004A08BD004B08BE00CB2420003C08C2014F
:10037800C2073B08C101C107E42220003F08CC00A6
:100388004C08F8007908143A031DCD29F0107110B3
:100398008A2378082000C800C9014808BB0049081A
:1003A800BC000530BD000030BE00CB2420003C0856
:1003B800C001C0073B08BF01BF0702306822080020
:1003C800F01B080020000E1DEF290130F200720812
:1003D800AB07701708000130F2007208AC07701FF5
:1003E8000800701A122A1C302C02031C632A2930B8
:1003F8002C020318632A0E302B02031C632A1530C3
:100408002B020318632A70160030AA000030A900D6
:100418000030A8000030A700B701642A701E642AC3
:1004280003302C02031C632A07302C020318632AAA
:100438000A302B02031C2D2A10302B0203182D2AF8
:100448000130A735A80DA90DAA0D890B252A271457
:10045800442A03302B02031C492A07302B020318B5
:10046800492A0130A735A80DA90DAA0D890B362AEE
:10047800FE30A705FF30A805FF30A905FF30AA0503
:100488000130F2007208B7074A2A70123708103A8A
:10049800031D5E2A00302A06031D5C2A0030290647
:1004A800031D5C2AAE302806031D5C2A4830270647
:1004B800031D632A3708303A031D642AF0177012A7
:1004C8007013AB01AC0108002000C30001304002EA
:1004D800153003193F02031C752A1430BF00013080
:1004E800C0004308013A031D902A4008C2003F0893
:1004F800C100C236C10CC236C10C41082C009200A2
:1005080020003F08C1000530C135FF3E031D882A81
:1005180041352C009100080020004308023A031DD1
:10052800AC2A4008C2003F08C100C236C10CC2361E
:10053800C10C41082C00950020003F08C10005307F
:10054800C135FF3E031DA42A41352C009400080044
:1005580020004308033A031DC82A4008C2003F0888
:10056800C100C236C10CC236C10C41082C0098002B
:1005780020003F08C1000530C135FF3E031DC02AD9
:1005880041352C009700080020004308043A031D59
:1005980008004008C2003F08C100C236C10CC2367C
:1005A800C10C41082C009B0020003F08C100053009
:1005B800C135FF3E031DDC2A41352C009A00080096
:1005C8002000C501C01FEF2ABF09C009BF0A0319CF
:1005D800C00AC501C50AC21FFA2AC109C209C10A4F
:1005E8000319C20A0130C3004308C506C601C70182
:1005F80040083F040319292BC401C40AC01B0E2B51
:100608000130BF35C00D890B052B0130C3004308ED
:10061800C407022B0130C635C70D890B0F2B4008C4
:100628004202031D192B3F084102031C202B3F08DF
:10063800C1024008C23B46140130C036BF0C890BCA
:10064800212B0130C402031D0E2B45080319312B41
:10065800C609C709C60A0319C70A4708C001C0075F
:100668004608BF01BF0708002000BD00BE01F7080B
:10067800031908008B138030BF000730C0003D0805
:10068800BB00BC013B08BF073C08C03D3F08230036
:1006980091002000400823009200151315129516AA
:1006A80015152300940120003E087607BB003B087F
:1006B8008600870101082300930055309600AA3070
:1006C8009600951400000000000000000130F702B9
:1006D800F70803197B2B01302000BB003B082300DF
:1006E800910701302000BB003B08BE07552B2300B3
:1006F800951255309600AA30960095140000000017
:1007080000000000230015118B17080060308E24AC
:100718002000C1004108C30034087806031DA22B3D
:10072800701D982B0130992B0030C100F01D9E2BB5
:1007380001309F2B00304106031908000F30430297
:10074800031CA92BC301C30AAD2B0130C10041080A
:10075800C30706300C2407300C2443302000C100A6
:100768004108F600F701F70A6030382378082000BE
:10077800B400C1004108B900F0117019F01500303B
:10078800F01901302000BA004335603EC10041082D
:10079800C3003930C1004108F6000230C2004208E7
:1007A800F70043083823080060308E242000BE007C
:1007B8003E08BF003F080319EF2B10303F02031813
:1007C800EF2B3F35603EBE003E08BF003F088E2439
:1007D800F8002000F52B6230BE003E08BF0038301C
:1007E800F800BE003E08B4003F08013E8E240038E1
:1007F800031D042C20000E128E167011F011080033
:1008080020000E168E127015F0117019F0150800E0
:100818002000BB008B138030BC000730BD003B08B4
:10082800F600F701F60EF70EF030F70576080F39E7
:10083800F704F030F6057608BC077708BD3D3C089C
:100848002300910020003D08230092001513151580
:10085800151655309600AA30960095140000000031
:1008680000000000230015118B1708007A302100C2
:1008780099000E30970023008C018E011030210062
:100888008C00043024008C0020008C0104302100EE
:100898008E00043020008E0021009512F830950556
:1008A80095114030200095008B1644309B0007308E
:1008B8009C002C0094019501D03096008B170800FD
:1008C80020003E083D043C043B04031908000130A5
:1008D8002000BF000030C0000030C1000030C2005E
:1008E8003F08BB024008BC3B4108BD3B4208BE3B39
:1008F800FF303E06031D8A2CFF303D06031D8A2C5F
:10090800FF303C06031D8A2CFF303B060319080004
:1009180064006B2C2000BB008B138030BC000730B8
:10092800BD003B08F600F7017608BC077708BD3D17
:100938003C082300910020003D0823009200151375
:10094800151400000000000000008B172300130896
:100958000800F70120000C1EBC2CB2010130F60083
:100968007608B1070C303102031CC92C8030C62C24
:10097800B1010130F6007608B2070C303202031CD0
:10098800C92CF030F6007608F70077080800F60161
:10099800F70120003B1CD42C3D08F6073E08F73D24
:1009A8000130BD35BE0D890BD52C0130BC36BB0CD2
:1009B800890BDA2C3C083B04031DCD2C7708BC01BD
:1009C800BC077608BB01BB070800D82320000E101F
:1009D8007808C400C5014408BB004508BC000530C0
:1009E800BD000030BE00CB2420003C08C001C00779
:1009F8003B08BF01BF07023068220800F01F172D0F
:100A080020002908F53A031D162D27082807F600A7
:100A1800F701F70DFF3076067704031D162DF01346
:100A280001300800F013003008003A24003020009C
:100A3800BE000030BD000330BC00E830BB006424B9
:100A4800E924640032210225003A0319252D582093
:100A5800252D2000BC00A001A1017708A301A30750
:100A68007608A201A207A4013C08BB003B08A50028
:100A780026140800640080010131890B3F2D0034E1
:020A8800143424
:020000040001F9
:04000E00CCF9FEDD4E
:00000001FF
