:020000004A288C
:10000800803120007F08F3000B1D47284030950001
:10001800261C3A282108F2002008F100A00A03193A
:10002800A10A72082302031D1B2871082202031C5F
:100038001F280C1420280C102208BC3EF1000230A6
:10004800233DF20072082102031D2C2871082002AA
:10005800031C3A28A001A1010130F1007108A4078E
:1000680025082402031C3A2826100C101C210130F4
:10007800F10071082000B00764303002031C4628E4
:10008800B00176150B117308FF0009004B28F60123
:10009800F701F801F90120308400003085001330A1
:1000A800DB232000D12B20002A082F06031D08007F
:1000B800E728F908031D6B280830BC003C08F90044
:1000C800E830F4000330F5000130C023FF28F901BF
:1000D8002000AB01AC01E830F4000330F500023039
:1000E800C023FF28F908031D852810302000BC0014
:1000F8003C08F900E830F4000330F5000130C02373
:10010800FF28F9012000AB01AC01E830F40003300E
:10011800F5000230C023FF2864302000BC003C08F2
:10012800BF0076106E22E830F4000330F50001308D
:10013800C023FF284D302000BC003C08BF007610CB
:100148006E22E830F4000330F5000130C023FF28A8
:100158003F302000BC003C08BF0076106E22E8301B
:10016800F4000330F5000130C023FF287618C528B5
:10017800BF017614E830F4000330F5000130C023E5
:10018800FF282000BF017610E830F4000330F500A6
:100198000130C023FF282000BF08031DDD28F90116
:1001A8007610AD23E830F4000330F5000130C023A9
:1001B800FF282000BF017610E830F4000330F50076
:1001C8000230C023FF2820002808103A031990287D
:1001D800203A03195D28703A0319BA28103A03190E
:1001E800AC28D03A0319CF28103A03199E28403A70
:1001F800031976281B29761C042920008C1406294B
:1002080020008C103F08BC00BD013C08B3003D082D
:10021800B4000A30B5000030B6005F23200034086F
:10022800B801B8073308B701B7070430A0210800A0
:10023800761A080020000C1D27290130F0007008EC
:10024800F707F61508000130F0007008F807F61DEA
:100258000800F6184A291C307802031C9B2929300B
:10026800780203189B290E307702031C9B2915304E
:10027800770203189B29F6140030AA000030A90061
:100288000030A8000030A700B1019C29F61C9C2969
:1002980003307802031C9B290730780203189B2936
:1002A8000A307702031C6529103077020318652984
:1002B8000130A735A80DA90DAA0D890B5D292714B2
:1002C8007C2903307702031C812907307702031841
:1002D80081290130A735A80DA90DAA0D890B6E2912
:1002E800FE30A705FF30A805FF30A905FF30AA0595
:1002F8000130F0007008B1078229F6103108103A71
:10030800031D962900302A06031D9429003029066A
:10031800031D9429AE302806031D9429483027066A
:10032800031D9B293108303A031D9C297616F610C7
:10033800F611F701F80108002000BB00033038026D
:10034800E93003193702031CAD29E830B700033040
:10035800B8003B08013A031DC8293808BA00370815
:10036800B900BA36B90CBA36B90C39082C00920063
:1003780020003708B9000530B935FF3E031DC029F4
:1003880039352C009100080020003B08023A031D73
:10039800E4293808BA003708B900BA36B90CBA36B1
:1003A800B90C39082C00950020003708B900053031
:1003B800B935FF3E031DDC2939352C0094000800AF
:1003C80020003B08033A031D002A3808BA00370802
:1003D800B900BA36B90CBA36B90C39082C009800ED
:1003E80020003708B9000530B935FF3E031DF8294C
:1003F80039352C009700080020003B08043A031DFB
:1004080008003808BA003708B900BA36B90CBA3645
:10041800B90C39082C009B0020003708B9000530BA
:10042800B935FF3E031D142A39352C009A000800FF
:100438002000B500B601F508031908008B138030B9
:10044800B7000330B8003508B300B4013308B70764
:100458003408B83D370823009100200038082300ED
:1004680092001513151295161515230094012000F6
:1004780036087407B3003308860087010108230093
:10048800930055309600AA3096009514000000009D
:10049800000000000130F502F50803195F2A013059
:1004A8002000B30033082300910701302000B30077
:1004B8003308B607392A2300951255309600AA301A
:1004C800960095140000000000000000230015119C
:1004D8008B170800703022232000B9003908BA00B1
:1004E8003E083F06031908000F303A02031C7F2A12
:1004F800BA01BA0A832A0130B9003908BA070730A5
:10050800D2223A302000B9003908F400F501F50A82
:1005180070301C2220003F08B9003908BE003A0894
:10052800703EB9003908BA003F30B9003908F40004
:10053800F501F50A3A081C220800761D0800761114
:1005480001302000BC003C08B20741232000BC0059
:100558003C08AF0064303202031C0800B20179087D
:10056800031908000130AB070030AC3D7908BC0026
:10057800BD013D082C02031DC32A3C082B02031CA5
:100588000800F901AB01AC01BF018C100030B700C5
:100598000030B8000430A021200008002000B3007B
:1005A8008B138030B4000330B5003308F400F50134
:1005B800F40EF50EF030F50574080F39F504F03037
:1005C800F4057408B4077508B53D34082300910094
:1005D80020003508230092001513151515165530FF
:1005E8009600AA3096009514000000000000000054
:1005F800230015118B1708007A30210099000E305E
:10060800970023008C01143021008C000430240052
:100618008C00203020008C0021009512F8309505C0
:1006280095114030200095008B16F9309B0006305C
:100638009C00D0302C009C008B1708002000B300D1
:100648008B138030B4000330B5003308F400F50193
:100658007408B4077508B53D3408230091002000DC
:10066800350823009200151315140000000000003F
:1006780000008B17230013080800F50120000C1E4A
:10068800502BAE010130F4007408AD070C302D0278
:10069800031C5D2B80305A2BAD010130F400740827
:1006A800AE070C302E02031C5D2BF030F4007408EA
:1006B800F50075080800F401F5012000331C682BCB
:1006C8003508F4073608F53D0130B535B60D890B08
:1006D800692B0130B436B30C890B6E2B3408330404
:1006E800031D612B7508B401B4077408B301B3077F
:1006F8000800AD2320008C103F08BC00BD013C0859
:10070800B3003D08B4000A30B5000030B6005F23DE
:1007180020003408B801B8073308B701B707043018
:10072800A0210800761EAB2B20002908F53A031DEE
:10073800AA2B27082807F400F501F50DFF307406E9
:100748007504031DAA2B76120130080076120030BA
:100758000800703022232000B6003608B70037089A
:10076800703EB6003608B700370822232000BF00C5
:10077800B6003608BE0008002000B400A001A101A0
:100788007508A301A3077408A201A207A4013408ED
:10079800B3003308A5002614080000237D23640055
:1007A800A1229623003A0319D32B5720D32B640098
:0A07B80080010131890BDC2B0034B5
:020000040001F9
:04000E00CCF9FEDD4E
:00000001FF
